{
  "contractName": "VehicleRegistry",
  "abi": [
    {
      "anonymous": false,
      "inputs": [
        {
          "indexed": false,
          "internalType": "string",
          "name": "vin",
          "type": "string"
        },
        {
          "indexed": false,
          "internalType": "string",
          "name": "details",
          "type": "string"
        }
      ],
      "name": "VehicleAdded",
      "type": "event"
    },
    {
      "inputs": [
        {
          "internalType": "string",
          "name": "_vin",
          "type": "string"
        },
        {
          "internalType": "string",
          "name": "_details",
          "type": "string"
        }
      ],
      "name": "addVehicle",
      "outputs": [],
      "stateMutability": "nonpayable",
      "type": "function"
    },
    {
      "inputs": [],
      "name": "getVehicleCount",
      "outputs": [
        {
          "internalType": "uint256",
          "name": "",
          "type": "uint256"
        }
      ],
      "stateMutability": "view",
      "type": "function",
      "constant": true
    },
    {
      "inputs": [
        {
          "internalType": "uint256",
          "name": "index",
          "type": "uint256"
        }
      ],
      "name": "getVehicleByIndex",
      "outputs": [
        {
          "internalType": "string",
          "name": "vin",
          "type": "string"
        },
        {
          "internalType": "string",
          "name": "details",
          "type": "string"
        }
      ],
      "stateMutability": "view",
      "type": "function",
      "constant": true
    },
    {
      "inputs": [
        {
          "internalType": "string",
          "name": "_vin",
          "type": "string"
        }
      ],
      "name": "isRegistered",
      "outputs": [
        {
          "internalType": "bool",
          "name": "",
          "type": "bool"
        }
      ],
      "stateMutability": "view",
      "type": "function",
      "constant": true
    }
  ],
  "bytecode": "0x608060405234801561000f575f80fd5b50610bd48061001d5f395ff3fe608060405234801561000f575f80fd5b506004361061004a575f3560e01c806363e518441461004e5780639bd298d21461006a578063c295332514610088578063c822d7f0146100b9575b5f80fd5b61006860048036038101906100639190610563565b6100e9565b005b61007261022e565b60405161007f91906105f1565b60405180910390f35b6100a2600480360381019061009d9190610634565b61023a565b6040516100b09291906106d9565b60405180910390f35b6100d360048036038101906100ce919061070e565b6103e4565b6040516100e0919061076f565b60405180910390f35b5f826040516100f891906107c2565b90815260200160405180910390205f9054906101000a900460ff1615610153576040517f08c379a000000000000000000000000000000000000000000000000000000000815260040161014a90610822565b60405180910390fd5b6001604051806040016040528084815260200183815250908060018154018082558091505060019003905f5260205f2090600202015f909190919091505f820151815f0190816101a39190610a3a565b5060208201518160010190816101b99190610a3a565b50505060015f836040516101cd91906107c2565b90815260200160405180910390205f6101000a81548160ff0219169083151502179055507f24e927d958239a1739e97706b79989f8087c7ecaf0a0ce0f48b0b5cf6cd741ea82826040516102229291906106d9565b60405180910390a15050565b5f600180549050905090565b6060806001805490508310610284576040517f08c379a000000000000000000000000000000000000000000000000000000000815260040161027b90610b53565b60405180910390fd5b5f6001848154811061029957610298610b71565b5b905f5260205f2090600202016040518060400160405290815f820180546102bf9061086d565b80601f01602080910402602001604051908101604052809291908181526020018280546102eb9061086d565b80156103365780601f1061030d57610100808354040283529160200191610336565b820191905f5260205f20905b81548152906001019060200180831161031957829003601f168201915b5050505050815260200160018201805461034f9061086d565b80601f016020809104026020016040519081016040528092919081815260200182805461037b9061086d565b80156103c65780601f1061039d576101008083540402835291602001916103c6565b820191905f5260205f20905b8154815290600101906020018083116103a957829003601f168201915b5050505050815250509050805f015181602001519250925050915091565b5f80826040516103f491906107c2565b90815260200160405180910390205f9054906101000a900460ff169050919050565b5f604051905090565b5f80fd5b5f80fd5b5f80fd5b5f80fd5b5f601f19601f8301169050919050565b7f4e487b71000000000000000000000000000000000000000000000000000000005f52604160045260245ffd5b6104758261042f565b810181811067ffffffffffffffff821117156104945761049361043f565b5b80604052505050565b5f6104a6610416565b90506104b2828261046c565b919050565b5f67ffffffffffffffff8211156104d1576104d061043f565b5b6104da8261042f565b9050602081019050919050565b828183375f83830152505050565b5f610507610502846104b7565b61049d565b9050828152602081018484840111156105235761052261042b565b5b61052e8482856104e7565b509392505050565b5f82601f83011261054a57610549610427565b5b813561055a8482602086016104f5565b91505092915050565b5f80604083850312156105795761057861041f565b5b5f83013567ffffffffffffffff81111561059657610595610423565b5b6105a285828601610536565b925050602083013567ffffffffffffffff8111156105c3576105c2610423565b5b6105cf85828601610536565b9150509250929050565b5f819050919050565b6105eb816105d9565b82525050565b5f6020820190506106045f8301846105e2565b92915050565b610613816105d9565b811461061d575f80fd5b50565b5f8135905061062e8161060a565b92915050565b5f602082840312156106495761064861041f565b5b5f61065684828501610620565b91505092915050565b5f81519050919050565b5f82825260208201905092915050565b5f5b8381101561069657808201518184015260208101905061067b565b5f8484015250505050565b5f6106ab8261065f565b6106b58185610669565b93506106c5818560208601610679565b6106ce8161042f565b840191505092915050565b5f6040820190508181035f8301526106f181856106a1565b9050818103602083015261070581846106a1565b90509392505050565b5f602082840312156107235761072261041f565b5b5f82013567ffffffffffffffff8111156107405761073f610423565b5b61074c84828501610536565b91505092915050565b5f8115159050919050565b61076981610755565b82525050565b5f6020820190506107825f830184610760565b92915050565b5f81905092915050565b5f61079c8261065f565b6107a68185610788565b93506107b6818560208601610679565b80840191505092915050565b5f6107cd8284610792565b915081905092915050565b7f546869732056494e20697320616c726561647920726567697374657265642e005f82015250565b5f61080c601f83610669565b9150610817826107d8565b602082019050919050565b5f6020820190508181035f83015261083981610800565b9050919050565b7f4e487b71000000000000000000000000000000000000000000000000000000005f52602260045260245ffd5b5f600282049050600182168061088457607f821691505b60208210810361089757610896610840565b5b50919050565b5f819050815f5260205f209050919050565b5f6020601f8301049050919050565b5f82821b905092915050565b5f600883026108f97fffffffffffffffffffffffffffffffffffffffffffffffffffffffffffffffff826108be565b61090386836108be565b95508019841693508086168417925050509392505050565b5f819050919050565b5f61093e610939610934846105d9565b61091b565b6105d9565b9050919050565b5f819050919050565b61095783610924565b61096b61096382610945565b8484546108ca565b825550505050565b5f90565b61097f610973565b61098a81848461094e565b505050565b5b818110156109ad576109a25f82610977565b600181019050610990565b5050565b601f8211156109f2576109c38161089d565b6109cc846108af565b810160208510156109db578190505b6109ef6109e7856108af565b83018261098f565b50505b505050565b5f82821c905092915050565b5f610a125f19846008026109f7565b1980831691505092915050565b5f610a2a8383610a03565b9150826002028217905092915050565b610a438261065f565b67ffffffffffffffff811115610a5c57610a5b61043f565b5b610a66825461086d565b610a718282856109b1565b5f60209050601f831160018114610aa2575f8415610a90578287015190505b610a9a8582610a1f565b865550610b01565b601f198416610ab08661089d565b5f5b82811015610ad757848901518255600182019150602085019450602081019050610ab2565b86831015610af45784890151610af0601f891682610a03565b8355505b6001600288020188555050505b505050505050565b7f496e646578206f7574206f662072616e676500000000000000000000000000005f82015250565b5f610b3d601283610669565b9150610b4882610b09565b602082019050919050565b5f6020820190508181035f830152610b6a81610b31565b9050919050565b7f4e487b71000000000000000000000000000000000000000000000000000000005f52603260045260245ffdfea2646970667358221220d2f8d1b51188584e9ce6e1811606a677803683169c950eff9c3ff59dcfddec6164736f6c63430008150033",
  "immutableReferences": {},
  "source": "// SPDX-License-Identifier: MIT\r\npragma solidity ^0.8.0;\r\n\r\ncontract VehicleRegistry {\r\n    struct Vehicle {\r\n        string vin;\r\n        string details; // e.g., make/model/year\r\n    }\r\n\r\n    // Mapping from VIN to boolean indicating whether it exists\r\n    mapping(string => bool) private vinExists;\r\n    // An array to keep track of all registered vehicles\r\n    Vehicle[] private vehicles;\r\n\r\n    // Event for when a vehicle is added\r\n    event VehicleAdded(string vin, string details);\r\n\r\n    // Add a new vehicle if it doesn't already exist\r\n    function addVehicle(string memory _vin, string memory _details) public {\r\n        require(!vinExists[_vin], \"This VIN is already registered.\");\r\n\r\n        vehicles.push(Vehicle({vin: _vin, details: _details}));\r\n        vinExists[_vin] = true;\r\n        emit VehicleAdded(_vin, _details);\r\n    }\r\n\r\n    // Get total number of registered vehicles\r\n    function getVehicleCount() public view returns (uint) {\r\n        return vehicles.length;\r\n    }\r\n\r\n    // Get vehicle by index\r\n    function getVehicleByIndex(uint index) public view returns (string memory vin, string memory details) {\r\n        require(index < vehicles.length, \"Index out of range\");\r\n        Vehicle memory v = vehicles[index];\r\n        return (v.vin, v.details);\r\n    }\r\n\r\n    // Check if a VIN is registered\r\n    function isRegistered(string memory _vin) public view returns (bool) {\r\n        return vinExists[_vin];\r\n    }\r\n}\r\n",
  "sourcePath": "C:\\projet_block\\contracts\\VehicleRegistry.sol",
  "compiler": {
    "name": "solc",
    "version": "0.8.21+commit.d9974bed.Emscripten.clang"
  },
  "schemaVersion": "3.4.16",
  "updatedAt": "2024-12-19T13:07:45.045Z",
  "networkType": "ethereum",
  "devdoc": {
    "kind": "dev",
    "methods": {},
    "version": 1
  },
  "userdoc": {
    "kind": "user",
    "methods": {},
    "version": 1
  }
}